:020000040800F2
:10000000500E0020A1010008271500081F14000849
:10001000251500080103000835160008000000003F
:100020000000000000000000000000002B15000888
:100030001D03000800000000291500082D15000808
:10004000BB010008BB010008BB010008BB010008A0
:10005000BB010008BB010008BB010008BB01000890
:10006000BB010008BB010008BB010008BB01000880
:10007000BB010008BB010008BB010008BB01000870
:10008000BB010008BB010008BB010008BB01000860
:10009000BB010008BB010008BB010008BB01000850
:1000A000BB010008BB010008BB010008BB01000840
:1000B000BB010008BB010008BB010008BB01000830
:1000C000BB010008BB010008BB010008BB01000820
:1000D000BB01000829160008BB010008BB0100088D
:1000E000BB010008BB010008BB010008BB01000800
:1000F000BB010008BB010008BB010008BB010008F0
:10010000BB010008BB010008BB010008BB010008DF
:10011000BB010008BB010008BB010008BB010008CF
:10012000BB010008BB01000805030008BB01000873
:10013000BB010008BB010008BB010008BB010008AF
:10014000BB010008BB010008BB010008BB0100089F
:10015000BB010008BB01000811030008BB01000837
:10016000BB010008BB010008BB010008BB0100087F
:10017000BB010008BB010008BB0100080000000033
:10018000BB010008BB010008DFF810D000F0A6F8A2
:1001900000F074F80048004791200008500E00203D
:1001A0000648804706480047FEE7FEE7FEE7FEE711
:1001B000FEE7FEE7FEE7FEE7FEE7FEE73115000893
:1001C000890100082DE9F05F0546002092469B4614
:1001D00088460646814640241BE02846414647465D
:1001E000224600F06AF853465A46C01A914110D38D
:1001F00011461846224600F051F82D1A67EB010807
:100200004F4622460120002100F048F817EB000974
:100210004E41201EA4F10104DFDC484631462A4647
:100220004346BDE8F09F40EA01039B0703D009E085
:1002300008C9121F08C0042AFAD203E011F8013BD2
:1002400000F8013B521EF9D27047D2B201E000F82B
:10025000012B491EFBD270470022F6E710B513466A
:100260000A4604461946FFF7F0FF204610BD421C1F
:1002700010F8011B0029FBD1801A704770B5054C9E
:10028000054D03E0206820448047241DAC42F9D18D
:1002900070BD0000E8280008EC280008202A04DBD4
:1002A000203A00FA02F1002070479140C2F1200389
:1002B00020FA03F3194390407047202A04DB203AC8
:1002C00021FA02F00021704721FA02F3D040C2F176
:1002D000200291400843194670470000064C074D24
:1002E00006E0E06840F0010394E807009847103406
:1002F000AC42F6D3FFF74CFFC8280008E8280008F6
:10030000FEE70000014800F01DB800005007002083
:10031000014800F017B80000B00700207047704790
:1003200090F83510022903D08021416501207047E3
:10033000052180F835100068016821F00101016095
:10034000002070472DE9F84304464FF00009CDF82E
:10035000009063484FF41651A56D0068B0FBF1F7AB
:100360002E6894F85C10082000FA01F131420FD099
:1003700021680A6852070BD50A6822F004020A6055
:1003800094F85C108840A860606D40F001006065E2
:1003900094F85C104FF0010808FA01F0304208D0E0
:1003A00021684969090604D5A860606D40F0020023
:1003B000606594F85C1004208840304208D02168C1
:1003C0000968890704D5A860606D40F00400606585
:1003D00094F85C1010208840304218D021680968D9
:1003E000090714D5A86020680168490304D500688E
:1003F000000308D5A16C07E00168C90503D40168B2
:1004000021F008010160216C09B12046884794F869
:100410005C1020208840304231D021680968C9062C
:100420002DD5A86094F8350005282068016806D00D
:10043000490347D5006800031DD4616C1CE021F01E
:10044000160101602068416921F080014161206C42
:1004500008B9A06C20B12068016821F00801016092
:1004600094F85C103F208840A86084F8349084F8A9
:100470003580216D1FE0E16B09B120468847606D32
:1004800000282BD0606DC00714D0052084F83500FB
:100490002068016821F0010101600098401C009073
:1004A000B84203D820680068C007F6D184F83490B9
:1004B00084F83580E16C002910D001B02046BDE8F9
:1004C000F04308470168C905D5D4016821F010013F
:1004D000016084F8349084F83580CCE7BDE8F88377
:1004E000000000202DE9F041044600F08BF906469B
:1004F0005CB1002584F83450022084F8350020686F
:10050000016821F0010101600DE00120BDE8F081EA
:1005100000F078F9801B052805D9202060650320AC
:1005200084F83500F2E720680068C007F0D122683F
:10053000116820480140D4E901031843D4E9033687
:100540003343184363691843A3691843E3691843A5
:10055000236A18430843616A042903D1D4E90B13C1
:1005600019430843106020684069666A20F007015B
:1005700030460E43012704280CD1A06A0643E06AE6
:1005800040B1204601F0BEF920B14020606584F8FA
:100590003570BAE720684661204601F083FA94F886
:1005A0005C203F2191408160656584F835700020B2
:1005B000ACE700003F8010F02DE9F0410446866D65
:1005C00090F83400002501280DD0012084F8340073
:1005D00094F835700020012F07D084F834000225EC
:1005E0002846BDE8F0810220FBE7022784F8357039
:1005F0006065204601F01FF894F85C103F208840A9
:10060000B0602068016841F016010160206C20B1E3
:100610002068016841F0080101602068016841F02C
:1006200001010160DCE7000070B5044600F0EAF863
:100630000546601C02D004480078044400F0E2F84B
:10064000401BA042FAD370BD0C0000202DE9F84FEA
:1006500000224FF0010803254FF00F0E0B6808FA37
:1006600002F42340A3426ED14E68012E05D0022E23
:1006700003D0112E01D0122E12D186684FEA420CFF
:1006800005FA0CF7BE43CF6807FA0CF737438760CB
:100690004668A6430C79C4F3001494403443446084
:1006A000C668570005FA07FC8C6826EA0C06BC40B1
:1006B0003443C4604C68022C01D0122C13D1D408EE
:1006C00000EB8404A346D4F8209054074FEAD46A80
:1006D0000EFA0AF629EA06090E6906FA0AF646EA49
:1006E0000906CBF8206006680C7926EA0C0604F0AF
:1006F0000304BC40344304604C68E40065D5364CC8
:10070000266846F480462660246822F0030604F436
:1007100080440094314C3444A446D4F808489607E9
:10072000370F0EFA07F6B4432D4EB04201D1002622
:1007300024E02C4EB04201D101261FE02A4EB042E7
:1007400002D102261AE040E0284EB04201D1032631
:1007500014E0274EB04201D104260FE0254EB042EE
:1007600001D105260AE0244EB04201D1062605E05B
:10077000224EB04201D1072600E00826BE402643A3
:10078000CCF808681E4E34684F689C43FF0300D5C0
:100790001C4334601A4C241D26684F689E43BF03D7
:1007A00000D51E432660164E083634684F689C43B9
:1007B000FF0200D51C433460114E0C3634684F687C
:1007C0009C43BF0200D51C433460521C102AFFF426
:1007D00045AFBDE8F88F00004438024000300140CA
:1007E000000002400004024000080240000C0240E9
:1007F000001002400014024000180240001C024099
:10080000003C014001488068704700000C00002057
:100810000248816802781144816070470C00002012
:100820000B4810B5016841F400710160016841F4A2
:1008300080610160016841F480710160032000F073
:100840006DF8002000F006F800F024F8002010BD3C
:10085000003C024070B50D4D04464FF47A71287883
:10086000B1FBF0F00A490968B1FBF0F000F002FBBF
:1008700048B9102C07D200222146501E00F02EF855
:1008800000206C6070BD012070BD00000C000020D5
:10089000000000200A4808B5016841F48041016069
:1008A000006800F4804000900548001F016841F096
:1008B00080510160006800F08050009008BD000089
:1008C0004438024000F01F0201219140400980009D
:1008D00000F1E020C0F8001170470000F0B40E4BAA
:1008E0001B680C46C3F30223C3F10705042D00D98E
:1008F0000425191D072901D2002300E0DB1E012673
:1009000006FA05F1491E214099409E40761E164088
:100910003143F0BC00F0A7BF0CED00E0064900F049
:10092000070208684FF6FF03184040EA0220034A16
:1009300010430860704700000CED00E00000FA056D
:100940002DE9F0470E46050065D0DFF81481D8F890
:100950000000F7B200F00F00B04207D288F8007034
:10096000D8F8000000F00F00B04254D128683D4C88
:10097000810712D5400703D5206840F4E05020607D
:100980002878000703D5206840F460402060206884
:10099000A96820F0F000084320602878C0072DD017
:1009A000304968680839012812D0022813D003287A
:1009B00011D00968890700292DDA216821F0030187
:1009C00001432160FFF71EFF814641F2883A0EE0A5
:1009D00009688903EFE709688901ECE7FFF712FF6F
:1009E000A0EB0901514502D90320BDE8F08720683A
:1009F000696800F00C00B0EB810FEFD1D8F800105F
:100A0000404601F00F01B14207D90770006800F0BD
:100A10000F00B04201D00120E7E72878400705D554
:100A20002068E96820F4E050084320602878000737
:100A300006D52068296920F4604040EAC1002060A2
:100A400000F038F82168084AC1F30311515CC8402E
:100A50000649086006480068FFF7FCFE0020C4E76E
:100A6000003C024008380240C02600080000002078
:100A7000100000200448054900680968044AC1F3D1
:100A80008221515CC84070470000002008380240B5
:100A9000D02600080448054900680968044AC1F3E3
:100AA0004231515CC84070470000002008380240C5
:100AB000D0260008154810B5006810F00C02144844
:100AC00013D01449042A0FD0082A0ED10F4C241F2A
:100AD0002268236802F03F025B0207D52068C0F35A
:100AE0008810A0FB010106E0084610BD2168C1F393
:100AF0008811A1FB00010023FFF764FB2168C1F30B
:100B00000141491C4900B0FBF1F010BD083802401A
:100B10000024F40040787D012DE9F84F04006ED0E8
:100B20002078DFF83C93C007A9F104054AD009F109
:100B300004000168C1F38101012908D00068C0F3F5
:100B4000810002280AD1D9F80000400206D52868A1
:100B5000800337D560680028E1D033E06068B0F5E5
:100B6000803F10D0B0F5A02F286810D020F480303E
:100B70002860286820F4802028606068A8B1FFF70A
:100B800041FE06460DE0286840F48030F4E740F46A
:100B900080202860F7E700BFFFF734FE801B642841
:100BA00073D828688003F7D50CE0FFF72BFE0646C4
:100BB00005E000BFFFF726FE801B6428F0D82868F8
:100BC0008003F7D42078DFF89C8280074FF0000A7A
:100BD0003ED5A348001D016811F00C0F08D0006835
:100BE000C0F3810002280BD1D9F80000400207D4DD
:100BF0002868800716D5E068012800D112E02BE1B3
:100C0000E068B8B10120C8F80000FFF7FBFD064618
:100C100005E000BFFFF7F6FD801B0228C0D828685A
:100C20008007F7D52868216920F0F80040EAC10064
:100C300028600DE0C8F800A0FFF7E4FD064604E0D8
:100C4000FFF7E0FD801B02281FD828688007F7D433
:100C50002078000722D5824E83486169703671B1D1
:100C600001210160FFF7CEFD074604E0FFF7CAFD52
:100C7000C01B022809D830688007F7D50EE0C0F8FD
:100C800000A0FFF7BFFD074605E082E0FFF7BAFDD1
:100C9000C01B02287DD830688007F7D42078400731
:100CA00068D5DFF8BCB100270BF13C0BDBF8000086
:100CB000C0000BD4DBF8001041F08051CBF80010DD
:100CC000DBF80000012700F080500090674E30688C
:100CD000C00510D4306840F480703060FFF792FD9A
:100CE000009005E0FFF78EFD0099401A022850D8C9
:100CF0003068C005F6D55A4EA0686C3601280FD072
:100D00000528306810D020F001003060306820F0F5
:100D100004003060A068B8B1FFF774FD00900FE0E8
:100D2000306840F00100F4E740F004003060F7E77D
:100D3000FFF768FD0099411A41F28830814266D878
:100D400030688007F4D50EE0FFF75CFD009007E007
:100D5000FFF758FD0099411A41F28830814256D878
:100D600030688007F4D42FB1DBF8001021F08051F7
:100D7000CBF80010A069C8B33949091D0968C1F34F
:100D8000810102294AD00228504607D0C8F86000E5
:100D900000E03CE0FFF736FD04463BE04746C8F87C
:100DA0006000FFF72FFD064605E000BFFFF72AFDB4
:100DB000801B02282BD828688001F7D4D4E90701CA
:100DC0000843A16A2A4A490802EB0141626A41EAE2
:100DD0008211084394F82C1040EA0161C9F8001010
:100DE00001203866FFF70EFD044606E036E000BF3E
:100DF000FFF708FD001B022809D828688001F7D5F5
:100E00002CE000BFFFF7FEFC001B022802D90320E4
:100E1000BDE8F88F28688001F4D41FE00128F7D0DE
:100E2000D9F80000E26900F48001914214D1226AED
:100E300000F03F0191420FD147F6C071626A014054
:100E4000914209D1A26A00F44031914204D1E16A91
:100E500000F07060884201D00120D9E70020D7E778
:100E60000438024000004742800E474200700040B4
:100E70000000FFFF10B5401EB0F1807F01D30120BC
:100E800010BD4FF0E02460610F21601700F0EBFC13
:100E90000020A06107202061002010BD70B590F8EF
:100EA0003C20012A32D0012480F83C40022280F804
:100EB0003D2003685A689D6822F070060A68324334
:100EC0005A60134B02689A4214D0B2F1804F11D08D
:100ED000104B9A420ED0104B9A420BD00F4B9A42B5
:100EE00008D00F4B9A4205D00E4B9A4202D00E4BBF
:100EF0009A4204D1496825F080031943916080F833
:100F00003D40002180F83C10084670BD022070BDB5
:100F1000000001400004004000080040000C0040B8
:100F200000040140004001400018004010B50400DA
:100F300003D094F83D0010B107E0012010BD00205F
:100F400084F83C00204600F00DF8022084F83D00B3
:100F5000211D206800F0FAFA012084F83D000020ED
:100F600010BD000008B50068B0F1804F08D10548F9
:100F7000016841F001010160006800F0010000908B
:100F800008BD000040380240022180F83D10016891
:100F90008A6802F00702062A03D00A6842F00102BA
:100FA0000A60012180F83D100020704770B50446AA
:100FB00090F83C00012817D0012584F83C5002200D
:100FC00084F83D002068826822F0770222F47F4294
:100FD00082600868502830D00DDC20284DD005DC18
:100FE00098B310283BD148E0022070BD302844D08F
:100FF000402834D139E0602828D0702806D0B0F5D8
:10100000805F2CD0B0F5005F29D10AE0CB68D1E930
:101010000121206800F0FEFA2068816841F0770124
:1010200009E0CB68D1E90121206800F0F3FA2068DB
:10103000816841F48041816011E0CA684968206894
:1010400000F044FD5021206807E016E0CA684968B6
:10105000206800F04CFD6021206800F0BDFC84F8A1
:101060003D50002084F83C0070BDCA684968206883
:1010700000F02CFD40212068EFE722680146104671
:10108000EBE7704770B5026804461068D168536991
:1010900010F00F0F53D003F0010501F490762E43AA
:1010A0005FD0C20705D0CA0503D5E26B42F001024A
:1010B000E263420705D5DA0703D0E26B42F0020291
:1010C000E263820705D5DA0703D0E26B42F004023F
:1010D000E263020707D501F020022A4303D0E26B46
:1010E00042F00802E263E26B002A34D0800604D5A5
:1010F000880602D5204600F06BFB20684069E16B52
:10110000C0F3801001F008010143204624D000F014
:1011100075FC2068416949061AD5416921F04001F2
:101120004161606BA0B11B490165606BFFF7F8F886
:10113000002810D0606B016DBDE870400847830641
:101140000FD58B060DD52046BDE8704000F040BBA2
:101150002046FFF796FF70BDFFF793FF0020E06386
:1011600070BD030606D50B0604D52046BDE87040C9
:1011700000F089BB4006F3D54806F1D5D16820467A
:1011800021F04001D160202184F8391000F040F9AD
:1011900070BD0000671A000870B5040004D094F810
:1011A0003900002510B106E0012070BD84F83850E8
:1011B000204600F023F8242084F839002068C16814
:1011C00021F40051C160204600F06EFA20680169E8
:1011D00021F4904101612068416921F02A014161B7
:1011E0002068C16841F40051C160E563202084F8A3
:1011F000390084F83A00002070BD00002DE9F0436A
:1012000087B0064614216846FFF726F83149306852
:1012100088425CD130480025016841F0100101602E
:10122000006800F0100005902B481438016841F068
:10123000010101600068694600F0010005904FF46B
:10124000C06000900220CDE9010503200390072033
:1012500004902248FFF7FAF9224C21484FF000672A
:101260002060C4E901754FF48068C4E90358801513
:101270006561C4E906504FF40039C4E90895204679
:10128000FFF730F908B1FFF74AF87463A663154C0D
:10129000134860347830E4E802074020A4E82101D4
:1012A000104844F814596030A561C4E907596562D3
:1012B000FFF718F908B1FFF732F83463002211463E
:1012C0002520A663FFF70AFB2520FFF7FBFA07B0EE
:1012D000BDE8F083001001404438024000000240A5
:1012E0004064024050070020F8B5044690F83A00E8
:1012F00020283CD1C1B3BAB394F83800012836D0C5
:10130000012084F83800A162A2850025E56322202F
:1013100084F83A00636B1748D863636B1648186407
:10132000636B1648D864606B134605650846666BA8
:10133000216802463046091DFFF73EF92068016822
:101340004168009184F83850C16841F48071C160EF
:101350002068416941F0010141612068416941F023
:10136000400141610020F8BDFFE70120FBE70220BA
:10137000F9E700002B1A0008E91900085F160008B9
:10138000014800F0C6BB00002800002070470000A4
:1013900070B5044690F83900202830D169B362B3A3
:1013A00094F8380001282AD0012084F838002162FE
:1013B000A284E2840025E563212084F83900236BB0
:1013C0001048D863236B10481864236B0F48D86407
:1013D000206B134605652668206B321DFFF7ECF87D
:1013E00021686FF04000086084F838502068416937
:1013F00041F080014161002070BD012070BD0220DC
:1014000070BD0000771A0008F31900085F16000885
:10141000014800F085BB0000280000207047FEE76F
:101420000D4808B5016841F48001016000680022A0
:1014300000F48000009011463A20FFF74FFA3A205E
:10144000FFF740FA002211464620FFF747FABDE8B1
:1014500008404620FFF736BA30380240094808B540
:10146000016841F080010160016801F08001009194
:10147000016841F001010160006800F00100009086
:1014800008BD00003038024010B586B00024164870
:10149000009401940294039404944FF080410594C5
:1014A000016044F2A011C0E90114611EC0E90314F7
:1014B0008461FFF73BFD08B1FEF731FF4FF4805028
:1014C000009069460848FFF771FD08B1FEF727FF55
:1014D000049404A904480594FFF7E0FC002801D017
:1014E000FEF71DFF06B010BD100800200C4810B517
:1014F0000A4901604FF461414160002181600C2282
:10150000C160C0E904128161C161FFF745FE002896
:1015100003D0BDE81040FEF702BF10BD001001402F
:1015200010070020FEE7704770477047FFF770B95B
:101530000548016841F47001016003494FF0006003
:10154000803908607047000088ED00E0F0B502685F
:10155000254C264D264E274F274B4FF0804CA0425E
:1015600009D0604507D0A84205D0B04203D0B842A8
:1015700001D0984204D122F0700E4A6842EA0E026D
:10158000A0421BD0604519D0A84217D0B04215D058
:10159000B84213D0984211D0184DA8420ED0184D21
:1015A000A8420BD0174DA84208D0174DA84205D02D
:1015B000164DA84202D0164DA84203D122F4407520
:1015C000CA682A434D6922F080022A4302608A6871
:1015D000C2620A688262A04201D0984201D10969C0
:1015E000016301214161F0BD0000014000040040A1
:1015F00000080040000C0040000401400040014091
:10160000004401400048014000180040001C004018
:101610000020004010B5846842EA032224F47F448D
:101620000A432243826010BD0148FFF72BBD000032
:1016300010070020FEE730B50468256825F48025F2
:101640002560046863608368402B036803D0996059
:101650000068C26030BD9A600068C16030BD70B57E
:10166000846B2068406994F83910C0F3C0100025DD
:10167000212904D118B1E584204600F0CDF9206875
:10168000406994F83A10C0F38010222904D118B1AF
:10169000E585204600F0B2F9E06B40F01000E06311
:1016A0002046FFF7EEFC70BD2DE9F04104460068CE
:1016B0000169E26821F44051114301612169A06888
:1016C000E26908436169114308432168CA6849F225
:1016D0000C639A430243CA6020684169A26921F4FD
:1016E000407111434161E069192764253226B0F544
:1016F000004F354A354920684FF0000806D088422F
:1017000001D0904236D1FFF7C5F935E0884201D0CB
:10171000904202D1FFF7BEF901E0FFF7ABF9616833
:101720004A18A0FB070148EB0803FEF74BFD0146F2
:10173000B0FBF5F00201B1FBF5F06FF01803584370
:1017400001EB800006EBC000B0FBF5F000F0F80004
:1017500002EB4002B1FBF5F0584301EB800006EBD1
:10176000C000B0FBF5F000F007002168104488606D
:10177000BDE8F081FFF77EF961688B0F8A00A0FB5E
:101780000701FEF71FFD0146B0FBF5F06FF01802F0
:10179000504301EB800006EB0010B0FBF5F000F0C9
:1017A000F002B1FBF5F002EB0012B1FBF5F06FF0C7
:1017B0001803584301EB800006EB0010B0FBF5F076
:1017C00000F00F00D1E700000014014000100140BC
:1017D00010B590F83A10222901D0022010BD81687E
:1017E000B1F5805F11D00169002901681FD04968F7
:1017F00001F07F03816A4A1C82620B70C18D491E11
:101800000904090CC18518D02BE00269816A002AFD
:101810000268526805D0D2B20A80816A491C81628E
:10182000ECE7C2F308020A80816A891CF7E74A687C
:10183000816A4B1C83620A70E0E70168CA6822F083
:101840002002CA600168CA6822F48072CA60016816
:101850004A6922F001024A61202180F83A10FFF71C
:101860008FFD002010BD0907090E002806DA00F0E0
:101870000F0000F1E02080F8141D704700F1E02017
:1018800080F80014704790F83910212901D0022007
:1018900070478168B1F5805F016A0BD04A1C026213
:1018A000026809785160C18C491E0904090CC18481
:1018B0000ED017E009880268C1F308015160016980
:1018C0000029016A02D0491C0162ECE7891CFBE790
:1018D0000168CA6822F08002CA600068C16841F0ED
:1018E0004001C16000207047044940680A464860D2
:1018F0000348D0E9021003681B6818470400002061
:10190000FC06002010B5014600208B698A6A4FF062
:10191000C07453B1B3F5005F15D072B1012A0CD079
:10192000022A0AD0032A09D104E01AB1012A06D0FA
:10193000022A03D1C96AC90100D5012010BDC96AB4
:10194000A142FAD010BD002AF7D0012AF2D0022A13
:10195000F3D0032AF3D010BD30B593B030216846E0
:10196000FEF77AFC14210CA8FEF776FC1848002537
:10197000016841F080510160006800F080501190D2
:101980001448016841F4804101600068022400F4B9
:101990008040119001200390102004900094069440
:1019A0000820CDE907504020CDE9090404200B9020
:1019B0006846FFF7B1F80CA90F2081E83100E0027A
:1019C000CDE90F0502210CA8FEF7BAFF13B030BD18
:1019D0004038024000700040826822F070020A43E2
:1019E00042F007018160704710B5806BFFF7CEFCB5
:1019F00010BD10B5806BFFF711FD10BD0168CA68FE
:101A000022F49072CA6001684A6922F001024A61B8
:101A1000202180F83A1070470168CA6822F0C0029D
:101A2000CA60202180F83910704710B50146806BDC
:101A300009680968C90513D40021C1850168CA680D
:101A400022F48072CA6001684A6922F001024A6188
:101A500001684A6922F040024A61202180F83A1068
:101A6000FFF78EFC10BD10B5806B0021C185C184CD
:101A7000FFF707FB10BD10B50146806B09680968C8
:101A8000C9050CD40021C18401684A6922F0800292
:101A90004A610068C16841F04001C16010BDFFF7B4
:101AA000B7FC10BD01681823CAB2103AB2FBF3F2BA
:101AB000054B6FF30901032A9B5CC36500D9091D1F
:101AC0008165084670470000F426000810B5036AD7
:101AD000046A24F001040462846924F0F00444EAF6
:101AE000021423F00A020A438461026210BD10B599
:101AF000036A23F0100303628369046A23F47043CA
:101B000043EA023224F0A00343EA01118261016238
:101B100010BD436800F1080180221846FFF7E4BBBE
:101B200070B54368044693F8390020281FD1104D42
:101B3000287800281BD101202870D4E96310814245
:101B400013D0884201D2091A01E0C0F580718EB22B
:101B500004F18C01014432461846FFF719FC94F851
:101B600090013044C0B2C4F890010020287070BDCC
:101B7000200000202DE9F04105460F7800790E463F
:101B8000B84204D2B900E86800F094FAE86004248E
:101B900000202F71804611E03119325D4B7842EA06
:101BA00003228B78C97842EA034242EA0161A960C4
:101BB000EA6842F82010401CC0B2241D29798142F5
:101BC000EAD8375D287C641CB84204D2B900A86901
:101BD00000F070FAA86100202F74E41C12E03119A3
:101BE000325D4B7842EA03228B78C97842EA03429D
:101BF00042EA01616961D5E9052141F82020401CD4
:101C0000C0B2241D297C8142E9D8375D287F641C3D
:101C1000B84204D2B900686A00F04CFA6862E01C6D
:101C20002F77002218E03118001D0C68034601468A
:101C3000204404E0745C7718491C07F8014C884282
:101C4000F8D88419F11804F8018C491E29626B6ACE
:101C500043F82210521CD2B2297F9142E3D8BDE84A
:101C6000F081000000487047A02700080048704736
:101C7000D826000800487047C12700080048704770
:101C8000E227000800487047F52700080048704721
:101C90001628000810B5064B0A68B2FBF3F403FBE4
:101CA0001424B2FBF3F203681A4402600C6010BD06
:101CB00000CA9A3B0A7842604B7842EA03224260AB
:101CC0008B7842EA03424260CB7842EA0362426088
:101CD0000B790A1D8360497943EA01218160937879
:101CE00041EA03418160D27841EA026181600820C3
:101CF0007047000000487047682800080048704797
:101D00008928000802490022C0E900128260704759
:101D10007827000870B50446086804231A4618445A
:101D200004E08D5C8E18521C06F8015C9042F8D8D5
:101D300045180022194405F8012C491E616070BD48
:101D4000004870479728000800487047B8280008E6
:101D50002DE9F0410646007908700020487088702F
:101D60000D46C870042401460DE0F2682B1952F8A4
:101D700021202A55170A5F70170C120E491C9F70FC
:101D8000DA70C9B2241D32798A42EED8317C2955E5
:101D9000641C00222855641C2855641C2855641CAA
:101DA0000DE0B1692B1951F8221029550F0A5F7007
:101DB0000F0C090E521C9F70D970D2B2241D317CB9
:101DC0009142EED8317F2955641C00272855641CA8
:101DD0002855641C2855641C12E0706A50F82700CE
:101DE000FEF745FA291980460860706A241D4246AC
:101DF00050F827102819FEF716FA7F1C4444FFB24A
:101E0000307FB842E9D82046BDE8F08170B506467B
:101E1000007908700C46B068FEF729FA0546C4F848
:101E20000100601D2A46B168FEF7FDF9681D70BD0E
:101E30002DE9F041054600790870A8880C46000A93
:101E40004870A868FEF713FA0646C4F80200A01D01
:101E50003246A968FEF7E7F9B61DE868FEF707FA0B
:101E60000746A019361D0760A0193A46E968FEF733
:101E7000DAF93E442869FEF7FAF90746A019361D3B
:101E80000760A0193A462969FEF7CDF9F01969698A
:101E9000221821540B0A53700B0C090E9370D17049
:101EA000001DBDE8F08102790A708288120A4A702A
:101EB0004268120C8A704268120ECA70027A0A7165
:101EC0000289130A0A1D4B718168090C91708068A0
:101ED000000ED0700820704770B506460C4640686A
:101EE000FEF7C5F905462060201D2A467168FEF7F9
:101EF0009AF9281D70BD000030B528B1144C031F9D
:101F0000002021680A4605E0084630BD9A4203D801
:101F100010465268002AF9D1002800D041680BD041
:101F20000468A3EB0005A54204D11B681C440346CA
:101F3000046002E0436000E023603AB11C68D51AF7
:101F4000A54203D115682C441C6052685A6030BD0C
:101F5000180000202DE9F04782460F4C10480D4E26
:101F60000E4F001B4FF0000820F007054FF001094D
:101F700000221146504600F057F8002802D1306880
:101F800010B10020BDE8F0873C60C4E90058C6F8F5
:101F90000090EDE71C0000205408002018000020ED
:101FA000500A002002E008C8121F08C1002AFAD116
:101FB00070477047002001E001C1121F002AFBD1C9
:101FC0007047000070B50C4800F034FB0B480C491A
:101FD000114A01600B480CA50E4C0260C160012340
:101FE0008560C0E9054300211C30044A0BA3016150
:101FF000C0E9003270BD0000240000200400002071
:1020000090270008E006002070635F746F5F7374B0
:102010006D333200E91800084C27000873746D33E3
:10202000325F746F5F7063002DE9F0410B3020F078
:102030000706104D19E02068B04215D3B0420AD906
:10204000871B201DD4F80480FEF7EDF8A019C0E925
:102050000078286004E060682860201DFEF7E3F83F
:10206000201D2660BDE8F081251D2C68002CE2D1E2
:102070000020F7E71800002010B50120FEF7D4FA81
:10208000BDE81040014800F08FB900002400002096
:10209000FEF7C6FBFFF760FCFFF7E0F9FFF7C0F9BA
:1020A000FFF7F2F9FFF722FA00F03AF8FFF7E4FF42
:1020B000FCE700002DE9F04704008A4616D054F8EA
:1020C000047CD4F800903E1F564500D95646204661
:1020D000FFF712FF05468846324621465046FFF775
:1020E000A3FF40B1C0F80090BDE8F087BDE8F0471D
:1020F0000846FFF72FBF44E9017955B129686A18EE
:10210000211F8A4202D9611B091F2960C5F804807A
:10211000EAE7024AC2F80080E6E700001800002063
:1021200070B51C4C251D2846FFF7F3FC2868FEF708
:102130002BFF0020C4F86C06C4F87006C4F87806BB
:10214000224602F5DB61C4F8740600BF02EB80038F
:10215000D3F8A4357BB1401C1928F7DB0D490020CA
:1021600001F2BC6201EB8003D3F808365BB1401C7E
:102170001928F7DB70BD02EB80037D30C3F8A4158E
:10218000C1E90202EAE701EB80016430C1F80826E8
:10219000506070BD2400002000487047B828000837
:1021A0008069704770B504460C300546FFF7B2FDF4
:1021B00028466169BDE87040084700000048704744
:1021C00097280008F0B587B004462C4800254FF446
:1021D0000076009004EB8507D7F8A405E8B10089E4
:1021E000ADF80400D7F8A40500680290D7F8A4055C
:1021F00007F2A457406801688968884703903868E7
:1022000040680168C9688847CDE9040638686A46AD
:10221000016920680368204698476D1C192DD9DB99
:102220005FF0000504EB8507D7F80806F0B1808859
:10223000ADF80400D7F8080680680290D7F80806C1
:1022400007F5C167016889688847039038680168A5
:10225000C9688847CDE90406386801684968884735
:10226000014620686A460368204698476D1C192D70
:10227000D8DB012084F8800607B0F0BD34270008C1
:102280003EB504466846FFF73DFD20686A460A21D0
:1022900003682046984760680068406AC4F898015F
:1022A0003EBD00002DE9FE430D460446642903DBD4
:1022B00094F88006002860D0106804F2AB310368FF
:1022C00010469847FF2184F8A413FE2184F8A51333
:1022D00084F8A603010A84F8A7130144C9B2C1F126
:1022E000FF0184F8A81384F8A953290A84F8AA13D3
:1022F00000210522C31D04E0A518521C95F8A45323
:1023000029449A42F8D3CA1701EB126222F0FF0265
:10231000891AC01D2218401CC1F1FF0182F8A413C4
:102320000546B0F5007F2AD8261D4FF4807704F5C6
:102330006978BD4200DC0746D6F88C11C1F580747F
:10234000BC4200D33C4606F18C0901EB0900224651
:102350004146FDF768FF96F88C01A7423844C0B2A9
:10236000C6F88C0105D03A1B08EB04014846FDF77E
:102370005AFF3046FFF7D4FB2846BDE8FE830849E4
:102380000322084B00938DF8042002912168204617
:102390006A460B68072198474FF0FF30EDE70000D1
:1023A0002F2800081C2700082DE9FF5F044640681D
:1023B0000068456AD4F8880642F6F821281A0026F3
:1023C000884201D984F88066D4F86C0628B1D4F824
:1023D0008C06A84201D2C4F86C66DFF84C924FF02C
:1023E000FF3B4FF008084FF0010A04F5D277A068D0
:1023F000211D406B00684068404200F07F02D4F825
:102400008C0082420AD001F10803421C41F8882F57
:10241000C05C02F07F020A60002812DA94F880069D
:1024200058B1D4F8840640F6C411281A884204D959
:102430002046FFF725FFC4F88456002004B0BDE80D
:10244000F09FD4F87C160A18C4F87C26D4F86C16D1
:10245000072928D099B301294AD0022956D0032947
:102460005AD0042962D0052969D0062970D00829DC
:10247000BDD102EA0902C4F86C66FF2AB7D1D4F8CC
:102480007406A0B30A2871D0062870D00B286FD02C
:1024900004EB8000D0F878040028A8D001680A680E
:1024A00039469047A3E7D4F878164A1CC4F8782632
:1024B000C855D4F87006401EC4F8700653E002E018
:1024C000C4F86C8693E7FF280AD060680068406A09
:1024D000401B05288BD984F880666FF00100ADE7BA
:1024E00005F11400C4F86CA6C4F88C067FE740E040
:1024F000FE2809D0C4F86C6694F880060028D1D173
:102500002046FFF7BDFE72E702200CE0C4F87866B3
:102510000321C4F8700615E0D4F8701601EB002012
:10252000C4F870060420C4F86C0660E702EA0902E9
:10253000FF2A02D0C4F86C6659E70520F3E70621AC
:10254000C4F87406C4F86C16C4F87C064FE7FFE7BD
:10255000D4F8741601EB0020C4F874060720C4F800
:102560006C06D4F8700600289CD1A9E70DE050E075
:1025700057E02046FFF784FE2046FFF723FEC4F80D
:1025800084565846C4F8885658E701A8FFF7BAFBA6
:1025900060680068406AD4F89811411A0091394681
:1025A00001A8FFF787FB00994FF47A70B1FBF0F1B7
:1025B000029A114402910099B1FBF0F200FB121152
:1025C00043F609525143039A02EB8111039161686A
:1025D0000968496A029BB1FBF0F29A1A521EC4F8CC
:1025E0009C21B1FBF0F200FB121010494843104946
:1025F00001EB80100399084404F5D071C4F8A001E0
:10260000081FFFF747FB60680068406AC4F8880647
:10261000EDE6394604F29460FFF7ACFA84F890A630
:10262000E5E684F88066E2E6FF000080F7C2FFFF7F
:1026300000CA9A3B10B51E4901601E4941601E49FF
:1026400081600021C0F88C10C0F89011C0F894117E
:1026500040F2946280F88016184B13504FEA010242
:1026600000EB8203521CC3F8A415192AF8D30022E8
:1026700000EB8203521CC3F80816192AF8D3002273
:102680004FF400738418521C84F8A4119A42F9D3B1
:1026900000228418521C84F8A4139A42F9D380F8BB
:1026A0009816C0F8A01680F8A416C0F8AC1610BD95
:1026B00064270008100800201007002004270008E5
:1026C00000000000000000000102030406070809E2
:1026D0000000000001020304726F73736572696188
:1026E0006C5F6D7367732F5265717565737450619C
:1026F00072616D0000061016000610160000000042
:1027000000000000511D0008751B00086D1C00082A
:10271000651C000800000000000000000D1E0008FD
:10272000000000007D1C0008751C0008000000006F
:1027300000000000311E0008000000008D1C000891
:10274000851C00080000000000000000A521000812
:10275000A121000899210008BD2100080000000007
:1027600000000000A5220008A923000800000000C6
:102770000000000000000000A71E0008B51C0008B3
:10278000FD1C0008F51C000800000000000000000F
:10279000D91E0008151D0008491D0008411D00082C
:1027A00039663065393862646136353938313938DF
:1027B0003664646635336166613761343065343957
:1027C000003131616264373331633235393333324A
:1027D00036316364363138336264313264363239CB
:1027E0003500726F7373657269616C5F6D736773C7
:1027F0002F4C6F670030616435316638386663345A
:102800003438393266386331303638343037373619
:10281000343630303500726F7373657269616C5F86
:102820006D7367732F546F706963496E666F004DE7
:102830006573736167652066726F6D206465766984
:1028400063652064726F707065643A206D657373A0
:10285000616765206C6172676572207468616E20C3
:102860006275666665722E0063643731363663378B
:1028700034633535326333313166626363326665A2
:102880003561376263323839007374645F6D736722
:10289000732F54696D65003939326365386131369B
:1028A0003837636563386338626438383365633753
:1028B00033636134316431007374645F6D736773C3
:1028C0002F537472696E6700EC2800080000002026
:1028D00024000000A41F0008102900082400002084
:1028E0002C0E0000B41F0008DDF6FFFF0024F400EA
:1028F00000000000000000000100000010000000C7
:1029000000000000000000000000000000000000C7
:040000050800018965
:00000001FF
