:020000040800F2
:10000000200E002049010008AF150008BB140008AD
:10001000AD1500080902000869160008000000007C
:10002000000000000000000000000000B315000800
:100030002502000800000000B1150008B5150008F1
:100040006301000863010008630100086301000800
:1000500063010008630100086301000863010008F0
:1000600063010008630100086301000863010008E0
:1000700063010008630100080D020008190200086E
:1000800063010008630100086301000863010008C0
:1000900063010008630100086301000863010008B0
:1000A00063010008630100086301000863010008A0
:1000B0006301000863010008630100086301000890
:1000C0006301000863010008630100086301000880
:1000D000630100085D160008630100086301000861
:1000E0006301000863010008630100086301000860
:1000F0006301000863010008630100086301000850
:10010000630100086301000863010008630100083F
:10011000630100086301000863010008630100082F
:10012000630100086301000863010008630100081F
:10013000DFF810D000F056F800F044F8004800470F
:10014000F11E0008200E00200648804706480047A0
:10015000FEE7FEE7FEE7FEE7FEE7FEE7FEE7FEE777
:10016000FEE7FEE7B91500083101000840EA010387
:100170009B0703D009E008C9121F08C0042AFAD25D
:1001800003E011F8013B00F8013B521EF9D2704721
:10019000D2B201E000F8012B491EFBD270470022C9
:1001A000F6E710B513460A4604461946FFF7F0FF76
:1001B000204610BD421C10F8011B0029FBD1801AFB
:1001C0007047000070B5054C054D03E020682044E1
:1001D0008047241DAC42F9D170BD0000D026000834
:1001E000D4260008064C074D06E0E06840F0010305
:1001F00094E8070098471034AC42F6D3FFF79CFF11
:10020000B0260008D0260008FEE70000014800F0F4
:10021000A3B80000D8070020014800F09DB80000F6
:1002200094070020704770472DE9F05F90F8211087
:100230000024022903D004218163012485E00168A0
:100240000A6822F00E020A6001680A6822F00102C0
:100250000A603F4E3E4FB215DFF8F4C0DFF8F09071
:10026000DFF8ECA0DFF8E8B0DFF8E4E00168783F01
:1002700013011502ACF1640CA9F15009AAF13C0A72
:10028000ABF1280BAEF1140E4FF48018B14227D910
:10029000B9420ED0614512D049451DD0514518D004
:1002A000594518D0714501D1424615E0294EB14259
:1002B00001D1012210E0274E1436B14201D11022A3
:1002C0000AE0244E2836B14206D0224A3C329142FE
:1002D00001D11A4600E02A461E49091F0A602BE098
:1002E000B94213D0614517D0494522D051451DD0A0
:1002F00059451DD0714501D142461AE0B14202D1A3
:100300004FF0807215E0134EB14201D1012210E08E
:10031000104E1436B14201D110220AE00D4E28369B
:10032000B14206D00B4A3C32914201D11A4600E05C
:100330002A46074980394A60012180F821100021AE
:1003400080F82010416B01B188472046BDE8F09F3E
:1003500080000240080402402DE9F05FC16B0A688A
:1003600001680B68046C4FF0040808FA04F8844D27
:10037000844E854FDFF814C2DFF81492DFF814A220
:10038000DFF814B2DFF814E218EA020F65D05FEA72
:10039000437862D50A68920603D40A6822F0040200
:1003A0000A60DFF8F0814FF48062016808F11408F8
:1003B00013011402414524D9A9420DD0B1420FD0F6
:1003C000B9421AD0614515D0494515D0514501D1E2
:1003D000120312E0594501D104220EE0714501D10A
:1003E00040220AE06D4D1435A94206D06B4A2832EE
:1003F000914201D11A4600E022466749091F0A606E
:1004000029E0A94213D0B14215D0B94220D06145AC
:100410001BD049451BD0514502D14FF4800217E053
:10042000414502D14FF0806212E0594501D10422CA
:100430000EE0714501D140220AE0584D1435A94221
:1004400006D0564A2832914201D11A4600E022468F
:100450004B4908394A60C16A71E04FF0020808FA56
:1004600004F818EA020F70D05FEA83786DD50A6845
:10047000920606D40A6822F00A020A60012180F876
:100480002110DFF810814FF40072016808F11408A0
:1004900013011402414524D9A9420DD0B1420FD015
:1004A000B9421AD0614515D0494515D0514501D101
:1004B000120312E0594501D102220EE0714501D12B
:1004C00020220AE0354D1435A94206D0334A28329D
:1004D000914201D11A4600E022462F49091F0A60C5
:1004E00029E0A94213D0B14215D0B94220D06145CC
:1004F0001BD049451BD0514502D14FF4001217E0E3
:10050000414502D14FF0007212E0594501D102225B
:100510000EE0714501D120220AE0204D1435A94298
:1005200006D01E4A2832914201D11A4600E02246E6
:10053000134908394A60002180F82010816A002997
:100540001CD0BDE8F05F0847FFE70825A54015422D
:1005500014D01A0712D50A6822F00E020A6090F829
:100560004020C36B012101FA02F25A60816380F8D6
:100570002110002180F82010016BE0E7BDE8F09F1A
:10058000080002401C0002403000024044000240CB
:10059000580002406C000240080402401C04024063
:1005A00030B560B11A4B026814219A4209D2194B36
:1005B0001344B3FBF1F18900016417490AE00120FB
:1005C00030BD134B5B421344B3FBF1F1890001646E
:1005D0000F490839C163022180F82110136843F6DE
:1005E000F0718B43F0E901142143D0E902452C431B
:1005F0002143046921434469214384692143194308
:10060000116000214163012242770177084630BD25
:1006100008040240F8FFFDBF0000024070B5044628
:1006200090F82000002501280CD0012084F820003B
:1006300094F821600020012E06D084F820000225C5
:10064000284670BD022070BD022684F82160A06398
:100650002068066826F001060660204601F005F8CD
:10066000E06A00282068016802D041F00E0106E02F
:1006700021F0040101602068016841F00A01016075
:100680002068016841F001010160D9E770B50446B6
:1006900000F012F90546601C02D0044800780444BA
:1006A00000F00AF9401BA042FAD370BD20000020E0
:1006B0002DE9F84FDFF8C891002409F1040A0AF186
:1006C000040B23460F270BF1040ED1E00125A540B2
:1006D00006EA0502AA4276D1DFF8A8C14E68A6EB69
:1006E0000C0866452BD00DDC032E34D005DC36B368
:1006F000012E19D0022E2FD11BE0112E16D0122E52
:100700002AD119E0B8F5881F19D006DCB8F5803F6A
:1007100015D0B8F5801F1FD111E0B8F5001F0ED01D
:10072000B8F5041F18D10AE0CB6815E0CB681B1D93
:1007300012E0CB6808330FE0CB680C330CE08B6819
:100740002BB1012B4FF0080303D0456104E00423D3
:1007500002E0056100E00023FF2A01D8064601E01F
:1007600000F104064FEA840501D9A5F12005D6F869
:10077000008007FA05FC28EA0C0803FA05F548EAA8
:100780000508C6F800804D68ED0070D53E4DAE6995
:1007900046F00106AE61AD6924F0030605F00105DF
:1007A00000953A4D06EB050CDCF80850A607360F0D
:1007B00007FA06F825EA0805DFF8D480404503D19A
:1007C0004FF0000825E052E0DFF8C880404502D134
:1007D0004FF001081DE0DFF8C080404502D14FF026
:1007E000020816E0DFF8B480404502D14FF003085C
:1007F0000FE0DFF8AC80404502D14FF0040808E07C
:10080000DFF8A080404502D14FF0050801E04FF02D
:10081000060808FA06F848EA0508CCF808804D688A
:10082000D9F80060ED034D4601D5164300E096432C
:100830002E604D68DAF80060AD03554601D51643C9
:1008400000E096432E604D68DBF80060ED025D46E7
:1008500001D5164300E096432E604D68DEF8006037
:10086000AD02754601D5164300E096432E60641C28
:100870000A681646E2407FF429AFBDE8F88F000011
:10088000000401400000111000100240000001406F
:1008900000080140000C014000100140001401401C
:1008A00000180140001C0140C26821EA02030A400E
:1008B00043EA0241016170470148806870470000C7
:1008C000200000200248816802781144816070474E
:1008D00020000020074810B5016841F010010160B8
:1008E000032000F075F8002000F006F800F024F86E
:1008F000002010BD0020024070B50D4D04464FF49D
:100900007A712878B1FBF0F00A490968B1FBF0F080
:1009100000F0ECFA48B9102C07D200222146501EF4
:1009200000F036F800206C6070BD012070BD000042
:10093000200000202C0000200C4808B5816941F0FF
:1009400001018161816901F001010091C16941F0FA
:100950008051C161C06900F0805000900448416836
:1009600021F0E06141F08061416008BD001002406B
:1009700000000140002809DB00F01F020121914026
:100980004009800000F1E020C0F80011704700002D
:10099000F0B40E4B1B680C46C3F30223C3F10705EA
:1009A000042D00D90425191D072901D2002300E0D8
:1009B000DB1E012606FA05F1491E214099409E40A2
:1009C000761E16403143F0BC00F07BBF0CED00E01A
:1009D000064900F0070208684FF6FF03184040EA96
:1009E0000220034A10430860704700000CED00E04D
:1009F0000000FA052DE9F0470F46050061D0434E8F
:100A0000306800F00700B84209D2306820F00700D3
:100A100038433060306800F00700B84251D1286890
:100A20003B4C810712D5400703D5606840F4E06075
:100A300060602878000703D5606840F4605060600B
:100A40006068A96820F0F000084360602878C0075B
:100A500028D06868012810D02168022810D08907A2
:100A600000292EDA616821F0030101436160FFF77C
:100A700023FF804641F288390DE021688903EFE7C2
:100A80008901EDE7FFF718FFA0EB0801494502D9FE
:100A90000320BDE8F0876068696800F00C00B0EBE7
:100AA000810FEFD1306800F00700B8420BD93068F1
:100AB00020F0070038433060306800F00700B8428B
:100AC00001D00120E5E72878400705D56068E9688E
:100AD00020F4E060084360602878000706D560686D
:100AE000296920F4605040EAC100606000F038F8E5
:100AF0006168084AC1F30311515CC84006490860A7
:100B000006480068FFF7F8FE0020C2E70020024018
:100B100000100240E42400082C00002024000020E3
:100B20000448054900684968044AC1F30221515C40
:100B3000C84070472C00002000100240F424000838
:100B40000448054900684968044AC1F3C221515C60
:100B5000C84070472C00002000100240F424000818
:100B600012A185B00FC98DE80F0014A0144A0068C7
:100B700004905168134811F00C0312D0042B10D0CC
:100B8000082B0ED1C1F38343C9031DF803000AD516
:100B9000516804AAC1F34041515C0A4A5043B0FB7A
:100BA000F1F005B0704708494843FAE7020304052D
:100BB000060708090A0B0C0D0E0F101001020000A9
:100BC0000010024000127A0000093D002DE9F84FA4
:100BD000040070D02078C04DC00749D06868C0F3C9
:100BE0008100012807D06868C0F38100022809D17C
:100BF0006868C00306D52868800339D56068002876
:100C0000E7D035E06068B0F5803F0BD010B1B0F5AB
:100C1000A02F11D0286820F480302860286820F4A4
:100C2000802002E0286840F480302860606890B13D
:100C3000FFF742FE06460AE0286840F4802028605C
:100C4000F0E700BFFFF738FE801B642873D82868E0
:100C50008003F7D50CE0FFF72FFE064605E000BF46
:100C6000FFF72AFE801B6428F0D828688003F7D499
:100C700020789A4E80074FF001094FF0000839D5CF
:100C8000686810F00C0F07D06868C0F38100022874
:100C900009D16868C00306D42868800714D5206984
:100CA000012808D110E02069B0B1C6F80090FFF724
:100CB00003FE074605E00AE1FFF7FEFDC01B022820
:100CC000C4D828688007F7D52868616920F0F80043
:100CD00040EAC10028600DE0C6F80080FFF7ECFD97
:100CE000074604E0FFF7E8FDC01B022823D8286868
:100CF0008007F7D4207800072CD57948A169D9B1AD
:100D0000C0F80090FFF7D8FD074604E0FFF7D4FDD8
:100D1000C01B02280FD8686A8007F7D571484FF4C6
:100D2000FA510068B0FBF1F0009000BF0098411E3E
:100D30000091FAD20EE080E0C0F80080FFF7BCFD21
:100D4000074604E0FFF7B8FDC01B022875D8686AA3
:100D50008007F7D42078400760D5E8690027C000F5
:100D600008D4E86940F08050E861E869012700F0A4
:100D7000805000905C480168C90513D4016883461F
:100D800041F480710160FFF797FD824606E000BFE5
:100D9000FFF792FDA0EB0A0064284ED8DBF80000B4
:100DA000C005F5D5E06801280AD008B1052813D0A0
:100DB000286A20F001002862286A20F0040002E07E
:100DC000286A40F001002862E06841F2883B98B14F
:100DD000FFF772FD82460BE0286A40F004002862AB
:100DE000EEE700BFFFF768FDA0EB0A0159455AD8AE
:100DF000286A8007F6D50CE0FFF75EFD824605E025
:100E0000FFF75AFDA0EB0A0159454CD8286A800724
:100E1000F6D41FB1E86920F08050E861E06988B33A
:100E20006968C1F38101022944D00228C6F86080B4
:100E300004D0FFF741FD044638E034E0FFF73CFD05
:100E4000074604E0FFF738FDC01B02282BD82868AE
:100E50008001F7D4206AB0F5803F05D16868A168A9
:100E600020F4003008436860D4E908010843696849
:100E700021F4741108436860C6F86090FFF71CFD08
:100E8000044606E025E000BFFFF716FD001B022820
:100E900009D828688001F7D51BE000BFFFF70CFDDB
:100EA000001B022802D90320BDE8F88F28688001C2
:100EB000F4D40EE00128F7D06868226A00F480318B
:100EC000914204D1616A00F47010884201D001207F
:100ED000EAE70020E8E7000000100240000042427C
:100EE000800442422C0000200070004010B5401EDB
:100EF000B0F1807F01D3012010BD4FF0E02460618C
:100F00000F21601700F0DDFC0020A06107202061A8
:100F1000002010BD70B590F83C20012A2CD001248F
:100F200080F83C40022280F83D2003685A689D68A2
:100F300022F070060A6832435A60104B02689A42E7
:100F40000ED00F4B9A420BD0B2F1804F08D00D4B10
:100F50009A4205D00C4B9A4202D00C4B9A4204D1D3
:100F6000496825F080031943916080F83D400021D5
:100F700080F83C10084670BD022070BD002C014076
:100F8000003401400004004000080040000C004014
:100F900010B5040003D094F83D0010B107E0012023
:100FA00010BD002084F83C00204600F01FF802200D
:100FB00084F83D00211D206800F000FB012084F82A
:100FC000460084F83E0084F83F0084F8400084F82E
:100FD000410084F8420084F8430084F8440084F817
:100FE000450084F83D00002010BD000008B50068F1
:100FF000B0F1804F08D10548C16941F00101C161DC
:10100000C06900F00100009008BD0000001002401F
:1010100070B5044690F83C00012817D0012584F8EB
:101020003C50022084F83D002068826822F077025C
:1010300022F47F4282600868502830D00DDC2028DE
:101040004DD005DC98B310283BD148E0022070BD9C
:10105000302844D0402834D139E0602828D0702886
:1010600006D0B0F5805F2CD0B0F5005F29D10AE042
:10107000CB68D1E90121206800F0E6FA2068816898
:1010800041F0770109E0CB68D1E90121206800F047
:10109000DBFA2068816841F48041816011E0CA6810
:1010A0004968206800F05AFC5021206807E016E0EB
:1010B000CA684968206800F062FC6021206800F07E
:1010C000D7FB84F83D50002084F83C0070BDCA680E
:1010D0004968206800F042FC40212068EFE7226860
:1010E00001461046EBE7704770B502680446106889
:1010F000D168536910F00F0F53D003F0010501F4CC
:1011000090762E435FD0C20705D0CA0503D5E26BA7
:1011100042F00102E263420705D5DA0703D0E26B31
:1011200042F00202E263820705D5DA0703D0E26BE0
:1011300042F00402E263020707D501F020022A43CD
:1011400003D0E26B42F00802E263E26B002A34D083
:10115000800604D5880602D5204600F01DFB2068D5
:101160004069E16BC0F3801001F0080101432046A3
:1011700024D000F08FFB2068416949061AD54169E7
:1011800021F040014161606BA0B12D494163606B6A
:10119000FFF74AF8002810D0606B416BBDE8704043
:1011A000084783060FD58B060DD52046BDE8704055
:1011B00000F0F2BA2046FFF796FF70BDFFF793FFED
:1011C0000020E06370BD03062BD50B0629D594F8EB
:1011D00039002128F6D1A068B0F5805F01D12069DF
:1011E000B0B1206A411C2162216800784860E08C1F
:1011F000401E0004000CE084E4D12068C16821F0A6
:101200008001C1602068C16841F04001C16070BDCB
:10121000206A0088C0F308005060206A801C2062A9
:10122000E5E74006F3D54806F1D5D168204621F020
:101230004001D160202184F8391000F037F970BDE9
:101240001F19000870B5040004D094F83900002577
:1012500010B106E0012070BD84F83850204600F03F
:1012600023F8242084F839002068C16821F4005153
:10127000C160204600F034FA2068016921F49041F1
:1012800001612068416921F02A0141612068C1683B
:1012900041F40051C160E563202084F8390084F8EE
:1012A0003A00002070BD0000F0B585B0002406466D
:1012B000009401940294039400682D49884255D10A
:1012C0002C48816941F480418161816901F4804148
:1012D0000491816941F0040181618069264D00F02B
:1012E000040004904FF4007000900220019003204D
:1012F000039069462846FFF7DBF92815CDE900047D
:10130000694628460294FFF7D3F91D4D1B488027F4
:10131000C5E90004C5E9024720202C61C5E9054064
:101320002846EC61FFF73CF908B1FEF77CFF7563D6
:101330006E62134D11484435143801C5102091C513
:101340000F4845F8104944306C61AC61EC61FFF71F
:1013500027F908B1FEF767FF356300221146252003
:101360006E62FFF715FB2520FFF704FB05B0F0BD0B
:1013700000380140001002400008014058000240BF
:1013800094070020F8B5044690F83A0020283CD194
:10139000C1B3BAB394F83800012836D0012084F8DC
:1013A0003800A162A2850025E563222084F83A0076
:1013B000636B17489862636B1648D862636B164874
:1013C0001863606B134645630846666B21680246E6
:1013D0003046091DFFF722F9206801684168009135
:1013E00084F83850C16841F48071C1602068416957
:1013F00041F0010141612068416941F040014161D2
:101400000020F8BDFFE70120FBE70220F9E700001C
:10141000E31800088118000895160008014800F03C
:10142000C0BA0000400000207047000070B50446BC
:1014300090F83900202830D169B362B394F83800AD
:1014400001282AD0012084F838002162A284E28495
:101450000025E563212084F83900236B1048986249
:10146000236B1048D862236B0F481863206B134618
:1014700045632668206B321DFFF7D0F821686FF0B6
:101480004000086084F838502068416941F08001CC
:101490004161002070BD012070BD022070BD0000C0
:1014A0002F1900088B18000895160008014800F055
:1014B0007FBA0000400000207047FEE70D4808B5E5
:1014C000416941F0010141614069002200F00100E1
:1014D000009011460E20FFF75BFA0E20FFF74AFA44
:1014E000002211460F20FFF753FABDE808400F20F5
:1014F000FFF740BA00100240054808B5816941F085
:1015000004018161806900F00400009008BD0000C2
:101510000010024010B586B00024154800940194D4
:101520000294039404944FF080410594C0E90014A0
:101530008460C46004618461FFF72AFD08B1FEF78E
:1015400072FE4FF48050009069460948FFF760FD35
:1015500008B1FEF768FE049404A905480594FFF756
:10156000D9FC002801D0FEF75EFE06B010BD0000D9
:101570000C0700200C4810B50A4901604FF4614186
:101580004160002181600C22C160C0E904128161C8
:10159000C161FFF757FE002803D0BDE81040FEF7F9
:1015A00042BE10BD0038014054070020FEE77047DE
:1015B00070477047FFF786B970470000F0B50268C2
:1015C0001C4B1D4D1D4E1E4F1E4C4FF0804C984223
:1015D00009D0A04207D0604505D0A84203D0B04250
:1015E00001D0B84204D122F0700E4A6842EA0E02DD
:1015F000984209D0A04207D0604505D0A84203D048
:10160000B04201D0B84203D122F44075CA682A43DF
:101610004D6922F080022A4302608A68C2620A6829
:101620008262984201D0A04201D10969016301217F
:101630004161F0BD002C0140000400400008004062
:10164000000C00400034014010B5846842EA0322D7
:1016500024F47F440A432243826010BD0148FFF70F
:1016600043BD000054070020FEE730B590F840501D
:101670000124AC40C56B6C60046863604368102B48
:10168000036803D099600068C26030BD9A6000684A
:10169000C16030BD70B5446A2068406994F8391063
:1016A000C0F3C0100025212904D118B1E5842046DB
:1016B00000F0FEF82068406994F83A10C0F38010FA
:1016C000222904D118B1E585204600F0E3F8E06B4B
:1016D00040F01000E0632046FFF705FD70BD0000FC
:1016E00070B5044600680169E26821F44051114375
:1016F00001612169A0680843616908432168CA68DB
:1017000041F20C639A430243CA6020684169A269AE
:1017100021F44071114341611E492068884202D181
:10172000FFF70EFA01E0FFF7FBF900EBC00101EB58
:101730000012606864218000B2FBF0F3B3FBF1F3A8
:101740006FF018067343B2FBF0F5B2FBF0F605EB51
:101750008305322303EB0515B5FBF1F5B6FBF1F676
:1017600005F0F00505EB0615B2FBF0F6B2FBF0F064
:10177000B0FBF1F06FF01802504306EB800003EB72
:101780000010B0FBF1F0216800F00F0028448860E1
:1017900070BD00000038014010B590F83A102229C1
:1017A00001D0022010BD82684FF480539A4201D1CB
:1017B000016921B1816A9A421BD04AB10AE00268EC
:1017C000816A5268C2F308020A80816A891C08E0B3
:1017D000026972B10268526802F07F020A70816A7F
:1017E000491C8162C18D491E0904090CC18503D0C1
:1017F00016E002685268F1E70168CA6822F0200228
:10180000CA600168CA6822F48072CA6001684A69C5
:1018100022F001024A61202180F83A10FFF7FEFD14
:10182000002010BD30B58FB028216846FEF7B7FC08
:1018300014210AA8FEF7B3FC0224012004900094AE
:101840001020059000254FF46010CDE90850079452
:101850006846FFF7BBF90AA90F2081E83100600252
:10186000CDE90D0502210AA8FFF7C4F80FB030BD7D
:10187000826822F070020A4342F0070181607047DB
:1018800010B5406AFFF7D0FD10BD10B5406AFFF7F4
:1018900013FE10BD0168CA6822F49072CA60016824
:1018A0004A6922F001024A61202180F83A1070470B
:1018B0000168CA6822F0C002CA60202180F839108D
:1018C00070470907090E002804DB00F1E02080F8CA
:1018D0000014704700F00F0000F1E02080F8141DA4
:1018E000704710B50146406A09680968890613D433
:1018F0000021C1850168CA6822F48072CA6001684B
:101900004A6922F001024A6101684A6922F04002F4
:101910004A61202180F83A10FFF780FD10BD10B514
:10192000406A0021C185C184FFF7DDFB10BD10B501
:101930000146406A0968096889060CD40021C184FF
:1019400001684A6922F080024A610068C16841F07A
:101950004001C16010BDFFF7A9FD10BD10B5036ABD
:10196000046A24F001040462846924F0F00444EA67
:10197000021423F00A020A438461026210BD10B50A
:10198000036A23F0100303628369046A23F470433B
:1019900043EA023224F0A00343EA011182610162AA
:1019A00010BD436800F1080180221846FFF7EABC29
:1019B00070B54368044693F8390020281FD1104DB4
:1019C000287800281BD101202870D4E963108142B7
:1019D00013D0884201D2091A01E0C0F580718EB29D
:1019E00004F18C01014432461846FFF71FFD94F8BC
:1019F00090013044C0B2C4F890010020287070BD3E
:101A0000380000202DE9F04104460E7800790D469B
:101A1000B04204D2B100E06800F07CFAE060042734
:101A200000202671804611E0E919EA5D4B7842EA10
:101A300003228B78C97842EA034242EA0161A1603D
:101A4000E26842F82010401CC0B23F1D217981425B
:101A5000EAD8EE5D207C7F1CB04204D2B100A069C0
:101A600000F058FAA06100202674FF1C11E0E9196B
:101A7000EA5D4B7842EA03228B78C97842EA034256
:101A800042EA01616161A26942F82010401CC0B2C3
:101A90003F1D217C8142EAD8EE5D207F7F1CB04251
:101AA00004D2B100606A00F035FA6062F81C267753
:101AB000002218E02918001D0E6803460146304434
:101AC00004E06E5C6F18491C07F8016C8842F8D876
:101AD0004619E91806F8018C491E2162636A43F829
:101AE0002210521CD2B2217F9142E3D8BDE8F0818E
:101AF000004870478825000800487047C82400083F
:101B000000487047A925000800487047CA2500080A
:101B100000487047DD25000800487047FE25000892
:101B200010B5064B0A68B2FBF3F403FB1424B2FBB6
:101B3000F3F203681A4402600C6010BD00CA9A3BBD
:101B40000A7842604B7842EA032242608B7842EA8C
:101B500003424260CB7842EA036242600B790A1D7D
:101B60008360497943EA01218160937841EA034126
:101B70008160D27841EA02618160082070470000EC
:101B8000004870475026000800487047712600083A
:101B900002490022C0E900128260704760250008F7
:101BA000004870477F26000800487047A0260008BC
:101BB0002DE9F041064600790870002048708870D1
:101BC0000D46C870042401460DE0F2682B1952F846
:101BD00021202A55170A5F70170C120E491C9F709E
:101BE000DA70C9B2241D32798A42EED8317C295587
:101BF000641C00212855641C2855641C2855641C4D
:101C00000DE0B2692B1952F821202A55170A5F708E
:101C1000170C120E491C9F70DA70C9B2241D327C59
:101C20008A42EED8317F2955641C00272855641C50
:101C30002855641C2855641C12E0706A50F827006F
:101C4000FEF7B8FA291980460860706A241D4246DA
:101C500050F827102819FEF789FA7F1C4444FFB278
:101C6000307FB842E9D82046BDE8F08170B506461D
:101C7000007908700C46B068FEF79CFA0546C4F877
:101C80000100601D2A46B168FEF770FA681D70BD3C
:101C90002DE9F041054600790870A8880C46000A35
:101CA0004870A868FEF786FA0646C4F80200A01D30
:101CB0003246A968FEF75AFAB61DE868FEF77AFAC6
:101CC0000746A019361D0760A0193A46E968FEF7D5
:101CD0004DFA3E442869FEF76DFA0746A019361DF5
:101CE0000760A0193A462969FEF740FAF0196969B8
:101CF000221821540B0A53700B0C090E9370D170EB
:101D0000001DBDE8F08102790A708288120A4A70CB
:101D10004268120C8A704268120ECA70027A0A7106
:101D20000289130A0A1D4B718168090C9170806841
:101D3000000ED0700820704770B506460C4640680B
:101D4000FEF738FA05462060201D2A467168FEF726
:101D50000DFA281D70BD000030B528B1144C031FCA
:101D6000002021680A4605E0084630BD9A4203D8A3
:101D700010465268002AF9D1002800D041680BD0E3
:101D80000468A3EB0005A54204D11B681C4403466C
:101D9000046002E0436000E023603AB11C68D51A99
:101DA000A54203D115682C441C6052685A6030BDAE
:101DB000300000202DE9F04782460F4C10480D4EB0
:101DC0000E4F001B4FF0000820F007054FF00109EF
:101DD00000221146504600F041F8002802D1306838
:101DE00010B10020BDE8F0873C60C4E90058C6F897
:101DF0000090EDE73400002024080020300000208F
:101E0000200A002002E008C8121F08C1002AFAD1E7
:101E100070477047002001E001C1121F002AFBD16A
:101E20007047000010B5074800F008FB0648074956
:101E3000054A01600648002106A30161C0E900329D
:101E400010BD00003C0000200000002078250008A4
:101E5000F806002063686174746572002DE9F04132
:101E60000B3020F00706104D19E02068B04215D362
:101E7000B0420AD9871B201DD4F80480FEF776F9FA
:101E8000A019C0E90078286004E060682860201D7F
:101E9000FEF76CF9201D2660BDE8F081251D2C6839
:101EA000002CE2D10020F7E73000002010B5082117
:101EB0000B48FEF7F9FC0B48A0F108010A46486000
:101EC0000948D0E9021003681B689847074800F0EA
:101ED0006FF9BDE810404FF47A70FEF7D7BB0000F1
:101EE000000C014008000020F80600203C00002003
:101EF000FEF7F0FCFFF796FCFFF7FEFAFFF7DEFABD
:101F0000FFF738FBFFF706FB00F03AF8FFF7CEFFCC
:101F1000FCE700002DE9F04704008A4616D054F88B
:101F2000047CD4F800903E1F564500D95646204602
:101F3000FFF712FF05468846324621465046FFF716
:101F40008DFF40B1C0F80090BDE8F087BDE8F047D4
:101F50000846FFF72FBF44E9017955B129686A188F
:101F6000211F8A4202D9611B091F2960C5F804801C
:101F7000EAE7024AC2F80080E6E7000030000020ED
:101F800010B5114C201DFFF70CFD0020C4F86C06A5
:101F9000C4F87006C4F87806214601F2BC62C4F8A1
:101FA000740600BF01EB8003D3F8A4351BB1401CBD
:101FB0001928F7DB10BD01EB80037D30C3F8A425A1
:101FC000C2E9020110BD00003C000020F0B587B05E
:101FD00004462C4800254FF40076009004EB85075A
:101FE000D7F8A405E8B10089ADF80400D7F8A40536
:101FF00000680290D7F8A40507F2A457406801686A
:10200000896888470390386840680168C9688847CC
:10201000CDE9040638686A460169206803682046ED
:1020200098476D1C192DD9DB5FF0000504EB85077F
:10203000D7F80806F0B18088ADF80400D7F8080694
:1020400080680290D7F8080607F5C16701688968BB
:102050008847039038680168C9688847CDE9040655
:102060003868016849688847014620686A460368FD
:10207000204698476D1C192DD8DB012084F8800676
:1020800007B0F0BD342500083EB504466846FFF7AA
:102090007FFD20686A460A210368204698476068E9
:1020A0000068406AC4F898013EBD00002DE9FE4377
:1020B0000D460446642903DB94F88006002860D0AE
:1020C000106804F2AB31036810469847FF2184F88A
:1020D000A413FE2184F8A51384F8A603010A84F84A
:1020E000A7130144C9B2C1F1FF0184F8A81384F811
:1020F000A953290A84F8AA1300210522C31D04E06C
:10210000A518521C95F8A45329449A42F8D3CA172B
:1021100001EB126222F0FF02891AC01D2218401C36
:10212000C1F1FF0182F8A4130546B0F5007F2AD85B
:10213000261D4FF4807704F56978BD4200DC074620
:10214000D6F88C11C1F58074BC4200D33C4606F130
:102150008C0901EB090022464146FEF707F896F884
:102160008C01A7423844C0B2C6F88C0105D03A1B96
:1021700008EB04014846FDF7F9FF3046FFF718FC6D
:102180002846BDE8FE8308490322084B00938DF8DA
:1021900004200291216820466A460B68072198476F
:1021A0004FF0FF30EDE70000172600081C2500085F
:1021B0002DE9FF5F044640680068456AD4F8880648
:1021C00042F6F821281A0026884201D984F8806650
:1021D000D4F86C0628B1D4F88C06A84201D2C4F811
:1021E0006C66DFF84C924FF0FF3B4FF008084FF061
:1021F000010A04F5D277A068211D406B0068406891
:10220000404200F07F02D4F88C0082420AD001F1F3
:102210000803421C41F8882FC05C02F07F020A606C
:10222000002812DA94F8800658B1D4F8840640F6F3
:10223000C411281A884204D92046FFF725FFC4F8A4
:102240008456002004B0BDE8F09FD4F87C160A182C
:10225000C4F87C26D4F86C16072928D099B3012934
:102260004AD0022956D003295AD0042962D0052920
:1022700069D0062970D00829BDD102EA0902C4F844
:102280006C66FF2AB7D1D4F87406A0B30A2871D0BF
:10229000062870D00B286FD004EB8000D0F87804AB
:1022A0000028A8D001680A6839469047A3E7D4F807
:1022B00078164A1CC4F87826C855D4F87006401E13
:1022C000C4F8700653E002E0C4F86C8693E7FF2878
:1022D0000AD060680068406A401B05288BD984F8E2
:1022E00080666FF00100ADE705F11400C4F86CA63C
:1022F000C4F88C067FE740E0FE2809D0C4F86C667D
:1023000094F880060028D1D12046FFF7BDFE72E781
:1023100002200CE0C4F878660321C4F8700615E0CA
:10232000D4F8701601EB0020C4F870060420C4F83D
:102330006C0660E702EA0902FF2A02D0C4F86C6664
:1023400059E70520F3E70621C4F87406C4F86C16B3
:10235000C4F87C064FE7FFE7D4F8741601EB0020C1
:10236000C4F874060720C4F86C06D4F87006002878
:102370009CD1A9E70DE050E057E02046FFF784FE2E
:102380002046FFF723FEC4F884565846C4F8885602
:1023900058E701A8FFF7FCFB60680068406AD4F8C2
:1023A0009811411A0091394601A8FFF7C9FB00991D
:1023B0004FF47A70B1FBF0F1029A11440291009946
:1023C000B1FBF0F200FB121143F609525143039A9C
:1023D00002EB8111039161680968496A029BB1FBB4
:1023E000F0F29A1A521EC4F89C21B1FBF0F200FBE5
:1023F000121010494843104901EB8010039908441A
:1024000004F5D071C4F8A001081FFFF789FB6068CC
:102410000068406AC4F88806EDE6394604F2946024
:10242000FFF7F0FA84F890A6E5E684F88066E2E625
:10243000FF000080F7C2FFFF00CA9A3B10B51E499B
:1024400001601E4941601E4981600021C0F88C1066
:10245000C0F89011C0F8941140F2946280F8801690
:10246000184B13504FEA010200EB8203521CC3F8D1
:10247000A415192AF8D3002200EB8203521CC3F8DA
:102480000816192AF8D300224FF400738418521C3E
:1024900084F8A4119A42F9D300228418521C84F8BB
:1024A000A4139A42F9D380F89816C0F8A01680F8C1
:1024B000A416C0F8AC1610BD4C2500080C0700206F
:1024C0005407002004250008726F737365726961F8
:1024D0006C5F6D7367732F526571756573745061AE
:1024E00072616D00000000000000000001020304A2
:1024F00006070809000000000102030400000000B4
:1025000000000000B11B0008051A0008F91A0008B5
:10251000F11A000800000000000000006D1C000817
:1025200000000000091B0008011B0008000000005B
:1025300000000000911C000800000000191B0008AA
:10254000111B00080000000000000000AD20000882
:10255000B1210008000000000000000000000000A1
:10256000071D0008411B0008891B0008811B00088B
:102570000000000000000000391D000800000000FD
:10258000A91B0008A11B0008396630653938626450
:1025900061363539383139383664646635336166C9
:1025A0006137613430653439003131616264373309
:1025B000316332353933333236316364363138334F
:1025C00062643132643632393500726F737365720A
:1025D00069616C5F6D7367732F4C6F670030616466
:1025E00035316638386663343438393266386331A9
:1025F0003036383430373736343630303500726F55
:102600007373657269616C5F6D7367732F546F705C
:102610006963496E666F004D657373616765206617
:10262000726F6D206465766963652064726F707087
:1026300065643A206D657373616765206C617267CC
:102640006572207468616E206275666665722E0020
:10265000636437313636633734633535326333314B
:102660003166626363326665356137626332383979
:10267000007374645F6D7367732F54696D650039FF
:1026800039326365386131363837636563386338AA
:1026900062643838336563373363613431643100E1
:1026A0007374645F6D7367732F537472696E670020
:1026B000D4260008000000203C000000041E000892
:1026C000102700083C000020E40D0000141E000844
:1026D00055F7FFFF000000000000000048656C6C2B
:1026E0006F20776F726C642066726F6D2053544D4B
:1026F0003332210001000000100000000000000043
:102700000024F400000000000000000000000000B1
:0400000508000131BD
:00000001FF
