:020000040800F2
:1000000078060020D5010008AD050008F9040008B5
:10001000FD040008DD0300084F0A0008000000008E
:100020000000000000000000000000002D07000894
:10003000E103000800000000350600081908000868
:10004000EF010008EF010008EF010008EF010008D0
:10005000EF010008EF010008EF010008EF010008C0
:10006000EF010008EF010008EF010008EF010008B0
:10007000EF010008EF010008EF010008EF010008A0
:10008000EF010008EF010008EF010008EF01000890
:10009000EF010008EF010008EF010008EF01000880
:1000A000EF010008EF010008EF010008EF01000870
:1000B000EF010008EF010008EF010008EF01000860
:1000C000EF010008EF010008EF010008EF01000850
:1000D000EF0100087D080008EF010008EF010008AB
:1000E000EF010008EF010008EF010008EF01000830
:1000F000EF010008EF010008EF010008EF01000820
:10010000EF010008EF010008EF010008EF0100080F
:10011000EF010008EF010008EF010008EF010008FF
:10012000EF010008EF010008EF010008EF010008EF
:1001300000F002F800F03FF80AA090E8000C8244BA
:100140008344AAF10107DA4501D100F034F8AFF297
:10015000090EBAE80F0013F0010F18BFFB1A43F0A5
:10016000010318472009000040090000103A24BF8D
:1001700078C878C1FAD8520724BF30C830C144BF0C
:1001800004680C607047000000230024002500264E
:10019000103A28BF78C1FBD8520728BF30C148BFEA
:1001A0000B607047732900F0B680002070471FB5C0
:1001B0001FBD10B510BD00F0E1F81146FFF7F7FFC5
:1001C00000F058FC00F0FFF803B4FFF7F2FF03BCA7
:1001D00000F03FFC0948804709480047FEE7FEE77A
:1001E000FEE7FEE7FEE7FEE7FEE7FEE7FEE7FEE7E7
:1001F00004480549054A064B704700001D080008E1
:1002000031010008780000207806002078020020E4
:1002100078020020704700000FB4044910B503AA0B
:10022000029800F07DF810BC5DF814FB140000206B
:100230002DE9F0410E460446002020622046E16888
:10024000884730B3252805D0D4E901219047206A9A
:10025000401CF2E7E168204600278847050018D0D7
:10026000A5F14100192802D820354FF40067324625
:10027000294620462760FFF795FF40B1012804D0AA
:10028000F61D26F007060836D8E7361DD6E72846BD
:10029000DAE7206ABDE8F08170B50C460546012A10
:1002A00005D02878800600D5EA69002302E0012302
:1002B00005E05B1C934202D2E05C0028F9D1A869FA
:1002C000E618C01AA861286A184428622846AFF3C5
:1002D000008004E0D5E9012114F8010B9047B442F5
:1002E000F8D32846AFF3008070BD70477047704761
:1002F000704710B5436913B1AFF3008001E0FFF719
:10030000CBFF012010BD127800F124010A700022F9
:100310004A700122EDE711684FF0FF32E9E7000073
:10032000074B70B50D467B4400F011F80446284693
:1003300000F020F810B14FF0FF3070BD204670BDC6
:100340002F07000001694A1C02610878704700B558
:100350008FB0CDE901310021059105497944CDE9FE
:10036000031011466846FFF763FF0FB000BD0000A1
:10037000E5FFFFFF007B00F080007047754600F04E
:1003800029F8AE4605006946534620F00700854629
:1003900018B020B5FFF72CFFBDE820404FF0000655
:1003A0004FF000074FF000084FF0000B21F007015D
:1003B000AC46ACE8C009ACE8C009ACE8C009ACE8A0
:1003C000C0098D4670470446AFF300802046FFF712
:1003D000FBFE0000004870471800002000BFFEE749
:1003E00070472DE9F0410246002500260020002339
:1003F0000024002791F803C00CF00F0591F803C00A
:100400000CF0100CBCF1000F03D091F802C04CEAC4
:10041000050591F800C0BCF1000F31D01468002030
:100420002BE04FF0010C0CFA00F3B1F800C00CEA1D
:1004300003069E4220D183004FF00F0C0CFA03F705
:10044000BC4305FA03FC4CEA040491F803C0BCF178
:10045000280F06D14FF0010C0CFA00FCC2F814C0B2
:100460000AE091F803C0BCF1480F05D14FF0010C30
:100470000CFA00FCC2F810C0401C0828D1D314604C
:10048000B1F800C0BCF1FF0F34DD546800202EE04D
:1004900000F1080C4FF0010808FA0CF3B1F800C0A5
:1004A0000CEA03069E4221D183004FF00F0C0CFA98
:1004B00003F7BC4305FA03FC4CEA040491F803C0BB
:1004C000BCF1280F05D100F1080C08FA0CF8C2F8AD
:1004D000148091F803C0BCF1480F07D100F1080C5B
:1004E0004FF0010808FA0CF8C2F81080401C0828E8
:1004F000CED35460BDE8F08100BFFEE700BFFEE749
:1005000000B587B00121042000F096F8012188038E
:1005100000F092F818208DF81B004FF40070ADF831
:10052000180001208DF81A0006A91E48FFF759FF90
:1005300004208DF81B000002ADF8180001208DF892
:100540001A0006A91748FFF74CFF4FF4E13002905C
:100550000020ADF814000C20ADF812000020ADF81A
:100560001000ADF80E00ADF80C0002A90E4800F026
:10057000FDF901210C4800F09DF9012240F22551BE
:10058000094800F0CDF925208DF8040001208DF8F0
:1005900007008DF805008DF8060001A800F008F8A6
:1005A00007B000BD0008014000380140704700005E
:1005B00070B5002100230F22C47804B3154C2468C1
:1005C00004F4E064C4F5E064210AC1F10403CA4004
:1005D000447804FA03F184781440214309010E4C55
:1005E0000678A155047804F01F050124AC40057875
:1005F0006D11AD0005F1E025C5F8004109E0047872
:1006000004F01F050124AC40044D0678761145F82E
:10061000264070BD0CED00E000E400E080E100E069
:1006200002490143024A1160704700000000FA05C8
:100630000CED00E07047000029B1064A92690243C0
:10064000044B9A6104E0034A92698243014B9A6128
:10065000704700000010024030B500210022002445
:1006600000232D4D6D6805F00C0121B1042905D042
:10067000082923D105E0294D056022E0274D0560BA
:100680001FE0254D6D6805F47012234D6D6805F46B
:100690008034022505EB92421CB9214D554305607B
:1006A0000BE01D4D6D6805F400351DB11C4D554323
:1006B000056002E0194D5543056002E0174D0560E5
:1006C00000BF00BF144D6D6805F0F0010909154D1C
:1006D0006B5C0568DD4045600F4D6D6805F4E061B9
:1006E000090A104D6B5C4568DD4085600A4D6D68F8
:1006F00005F46051C90A0B4D6B5C4568DD40C5606F
:10070000054D6D6805F44041890B074D6B5CC5686C
:10071000B5FBF3F5056130BD0010024000127A0010
:1007200000093D000000002010000020704710B5B7
:1007300000F002F810BD00000CB500200190009000
:100740003348006840F480303149086000BF3048C9
:10075000006800F4003000900198401C019000985F
:1007600018B90198B0F5A06FF1D12948006800F4DC
:10077000003010B10120009001E0002000900098AE
:10078000012843D12348006840F010002149086047
:100790000846006820F0030008600846006840F042
:1007A000020008601A4840681949486008464068D5
:1007B00048600846406840F48060486008464068E9
:1007C00020F47C1048600846406840F4E810486017
:1007D0000846006840F08070086000BF0C48006860
:1007E00000F000700028F9D00948406820F00300AC
:1007F000074948600846406840F00200486000BF72
:100800000348406800F00C000828F9D10CBD000036
:1008100000100240002002407047000010B513484D
:10082000006840F00100114908600846406810491E
:1008300008400E494860084600680E4908400B49C8
:1008400008600846006820F4802008600846406878
:1008500020F4FE0048604FF41F008860FFF767FF38
:100860004FF000600449086010BD00000010024015
:100870000000FFF8FFFFF6FE08ED00E008B540F2CB
:100880002551074800F022F840B1054800F0DAF899
:10089000C0B20090694603A0FFF7BEFC08BD00008F
:1008A0000038014052656365697665643A202573B6
:1008B0000D0A000021B1828942F40052828104E0D5
:1008C00082894DF6FF731A408281704770B50246E7
:1008D000002400230025002040F66A16B14200D112
:1008E00000BFC1F3421501F01F03012606FA03F30E
:1008F000012D02D19689334006E0022D02D1168ADD
:10090000334001E0968A33400C12012606FA04F4C3
:100910001688344013B10CB1012000E0002070BDF6
:10092000F0B50346002400260025002040F66A1793
:10093000B94200D100BF1846C1F3421401F01F06AE
:10094000012707FA06F5012C01D10C3004E0022C36
:1009500001D1103000E014301AB107682F4307604E
:1009600002E00768AF430760F0BD00002DE9F047E3
:1009700086B005460E460024A24600BFA1460027C9
:10098000B08900B100BF2F462C8A4CF6FF7004409E
:10099000F08804432C82AC894EF6F3100440B088F2
:1009A00031890843718908430443AC81AC8A4FF60E
:1009B000FF400440B0890443AC8201A8FFF74CFE1D
:1009C0001F48874202D1DDF810A001E0DDF80CA03D
:1009D000A88900F4004040B10AEBCA0000EB0A10FD
:1009E00031684900B0FBF1F807E00AEBCA0000EB00
:1009F0000A1031688900B0FBF1F86420B8FBF0F010
:100A000004012009642101FB1089A88900F4004039
:100A100040B1322000EBC900B0FBF1F000F007005C
:100A2000044308E0322000EB09106421B0FBF1F030
:100A300000F00F0004432C8106B0BDE8F0870000F1
:100A40000038014001468888C0F30800704700BFA5
:100A5000FEE700BF7047000000BF054A128802F0A1
:100A60004002002AF9D0C2B2014B1B1D1A80704708
:100A7000003801404FF4A060FFF7D2FDFFF740FDC2
:100A800000BFFEE7A40A00080000002018000000D4
:100A90006C010008BC0A0008180000206006000075
:100AA00088010008000000000102030401020304A1
:0C0AB00006070809020406080000000008
:0400000508000131BD
:00000001FF
